S01500004156525F46494E414C5F4D43312E737265633D
S11300000C943A000C9457000C9457000C9457002D
S11300100C9457000C9457000C9457000C94570000
S11300200C9457000C9457000C9457000C945700F0
S11300300C9457000C94BD070C94E4070C940B0823
S11300400C9459000C9457000C9457000C945700CE
S11300500C945700B702D502B902BB02BD02BF021D
S1130060C102C302C502C702C902CB02CD02CF023C
S1130070D102D30211241FBECFE5D8E0DEBFCDBF2D
S113008011E0A0E6B0E0E6E2F4E102C005900D92D2
S1130090A830B107D9F721E0A8E0B1E001C01D9272
S11300A0A231B207E1F70E94F3060C94110A0C94F2
S11300B000001F920F920FB60F9211242F933F93BB
S11300C04F935F936F937F938F939F93AF93BF935C
S11300D0EF93FF9384B190E090931101809310010A
S11300E085B120E0382F8091100190911101822B6D
S11300F0932B9093110180931001E0910801F091EA
S11301000901309709F00995FF91EF91BF91AF91E3
S11301109F918F917F916F915F914F913F912F911B
S11301200F900FBE0F901F90189517B887B1806479
S113013087B987B18F7787B986B1816086B986B16F
S1130140826086B986B18B7F86B986B1806886B9AC
S113015080B78E7F80BF80B78D7F80BF80B78B7F55
S113016080BF0895877097B1907E97B997B1892B16
S113017087B986B1806486B9349BFECF86B180612D
S113018086B924B185B190E0982F8827822B0895F1
S113019041E062E082E00E945E0140E062E082E0D1
S11301A00E94DF00089541E062E082E00E94DF00E7
S11301B0089540E062E082E00E94DF000895843008
S11301C008F07BC0683008F078C0813019F130F055
S11301D08230E1F1833009F455C00895442319F0C5
S11301E0413069F008952BB381E090E002C0880F9C
S11301F0991F6A95E2F7809582238BBB08952BB3F0
S113020081E090E002C0880F991F6A95E2F7822B83
S11302108BBB0895442319F0413069F0089528B345
S113022081E090E002C0880F991F6A95E2F78095FB
S1130230822388BB089528B381E090E002C0880F30
S1130240991F6A95E2F7822B88BB0895442319F01D
S1130250413069F0089525B381E090E002C0880F31
S1130260991F6A95E2F78095822385BB089525B38B
S113027081E090E002C0880F991F6A95E2F7822B13
S113028085BB0895442319F0413069F0089522B3E1
S113029081E090E002C0880F991F6A95E2F780958B
S11302A0822382BB089522B381E090E002C0880FCC
S11302B0991F6A95E2F7822B82BB0895843008F077
S11302C07BC0683008F078C0813019F130F082309A
S11302D0E1F1833009F455C00895442319F0413005
S11302E069F008952AB381E090E002C0880F991F55
S11302F06A95E2F7809582238ABB08952AB381E048
S113030090E002C0880F991F6A95E2F7822B8ABB9E
S11303100895442319F0413069F0089527B381E02A
S113032090E002C0880F991F6A95E2F780958223B6
S113033087BB089527B381E090E002C0880F991F1E
S11303406A95E2F7822B87BB0895442319F0413064
S113035069F0089524B381E090E002C0880F991FEA
S11303606A95E2F78095822384BB089524B381E0E3
S113037090E002C0880F991F6A95E2F7822B84BB34
S11303800895442319F0413069F0089521B381E0C0
S113039090E002C0880F991F6A95E2F78095822346
S11303A081BB089521B381E090E002C0880F991FBA
S11303B06A95E2F7822B81BB08951F93CF93DF9355
S11303C0EC01162F0E9492020E94A902883009F5BE
S11303D0CE0188279770880F892F881F990B9195D4
S11303E0806A0E949B020E94A9028831A1F48C2F8A
S11303F00E949B020E94A902883279F4812F0E94F4
S11304009B020E94A902883251F40E94980281E062
S113041007C080E005C080E003C080E001C080E048
S1130420DF91CF911F910895EF92FF920F931F9345
S1130430CF93DF93EC018B010E9492020E94A902E8
S1130440883091F57E01EE2487E0F822EE0CEF2C43
S1130450EE1CFF08F1948E2D806A0E949B020E947C
S1130460A902883119F58C2F0E949B020E94A902CF
S11304708832F1F40E9492020E94A9028031D1F4E0
S11304808E2D816A0E949B020E94A9028034A1F4ED
S11304900E94A202F80180830E94A902883571F4A7
S11304A00E94980281E00BC080E009C080E007C090
S11304B080E005C080E003C080E001C080E0DF91FF
S11304C0CF911F910F91FF90EF90089541E063E069
S11304D083E00E945E0141E064E083E00E945E01EB
S11304E0089540E063E083E00E94DF0041E064E0BF
S11304F083E00E94DF00089541E063E083E00E940E
S1130500DF0040E064E083E00E94DF00089540E003
S113051063E083E00E94DF0040E064E083E00E9447
S1130520DF00089584EA86BF06B607FEFDCF08956E
S113053084E986BF089583B984E886BF06B607FEBA
S1130540FDCF089584E886BF06B607FEFDCF83B1CC
S1130550089581B1887F0895482F50E0FA013197BA
S1130560E031F10518F5E65DFF4F0C94680981E46C
S1130570089584E0089587E0089580E0089582E076
S1130580089585E0089588E0089582E4089583E05D
S1130590089586E0089589E0089583E4089584E445
S11305A0089585E4089586E4089581E0089580E03F
S11305B022C020E130E0082E02C0220F331F0A942B
S11305C0E2F727BB209528BB90E012C026B330E0A9
S11305D0092E02C0359527950A94E2F720FD07C03D
S11305E0990F990F890F8F5F0E94AC0208959F5F46
S11305F0943060F38F5F8430E0F2D9CFCF93C82F6B
S113060040E065E082E00E94DF0040E066E082E0D6
S11306100E94DF004C2F417062E083E00E94DF0003
S1130620C1FB442740F961E080E00E94DF00C2FB87
S1130630442740F962E080E00E94DF00C3FB4427C6
S113064040F963E080E00E94DF00C4FB442740F9E6
S113065064E080E00E94DF00C5FB442740F965E0C8
S113066080E00E94DF00C6FB442740F966E080E09A
S11306700E94DF004C2F441F4427441F67E080E0A2
S11306800E94DF0041E067E082E00E94DF0083EF28
S113069091E00197F1F700C0000040E067E082E0DC
S11306A00E94DF00CF910895CF93C82F41E065E009
S11306B082E00E94DF0040E066E082E00E94DF000A
S11306C04C2F417062E083E00E94DF00C1FB4427AD
S11306D040F961E080E00E94DF00C2FB442740F95A
S11306E062E080E00E94DF00C3FB442740F963E03E
S11306F080E00E94DF00C4FB442740F964E080E00E
S11307000E94DF00C5FB442740F965E080E00E94B9
S1130710DF00C6FB442740F966E080E00E94DF006A
S11307204C2F441F4427441F67E080E00E94DF00F1
S113073041E067E082E00E94DF0083EF91E00197EF
S1130740F1F700C0000040E067E082E00E94DF00B3
S1130750CF9108950F931F93CF93DF938C01C0E043
S1130760D0E003C00E9454032196F801EC0FFD1F52
S113077080818111F7CFDF91CF911F910F9108955F
S11307802F923F924F925F926F927F928F929F929D
S1130790AF92BF92CF92DF92EF92FF920F931F938B
S11307A0CF93DF9300D000D01F92CDB7DEB72B01DB
S11307B03C0199235CF47094609450944094411CDF
S11307C0511C611C711C8DE20E945403312C19824E
S11307D01A821C821D82912C812C1B82212C29813E
S11307E03A814C815D81692D782D8B81922D01E0B8
S11307F00E94CD09822E932E4A835983B62FA72FA8
S1130800F82FE92F02E00E94CD09A22EB32EC42EA8
S1130810D52EE62EF72E082F192F282D392D4A8193
S113082059816B2F7A2F8F2F9E2F0E94E609B22EAB
S1130830232EC42E852E962E7A838983D92EC30126
S1130840B2012AE030E040E050E00E944909E22F82
S1130850F32FA42FB52F7B018C012B013C01770CC6
S11308604408542C32012B2D322D4C2D582D692D3A
S11308707A8189819D2DAE2CBF2CC02ED12EE42CE3
S1130880F42C042D142D0E94E60929833A834C8309
S11308905D83962E872E8B83292E4E2E5F2E6A2EF5
S11308A07B2E339414141504160417040CF497CFF8
S11308B02CC00F2EFAE0AF2EF02DB12CC12CD12C70
S11308C0E12CF12C00E010E029813A814C815D811A
S11308D0692D782D8B81922D0E946E0980E3820F01
S11308E00E94540329813A814C815D81692D782DC0
S11308F08B81922D0E94700929833A834C835D83F6
S1130900962E872E8B83292E3A943110D2CF0F90B6
S11309100F900F900F900F90DF91CF911F910F9137
S1130920FF90EF90DF90CF90BF90AF909F908F900B
S11309307F906F905F904F903F902F90089581E04B
S11309400E94FE02089590E4899F600D1124862F71
S113095080680E94FE020895CF93DF93EC018881A2
S1130960813041F48981813039F48A81813031F0D8
S11309708EE005C088E003C08CE001C08FE00E94D7
S1130980FE028B81813011F080E301C088E39C81F9
S1130990913009F484600E94FE02DF91CF910895A2
S11309A0CF93DF93EC0141E065E082E00E945E01B9
S11309B041E066E082E00E945E0141E067E082E09F
S11309C00E945E0141E062E083E00E945E0141E03A
S11309D061E080E00E945E0141E062E080E00E940C
S11309E05E0141E063E080E00E945E0141E064E07A
S11309F080E00E945E0141E065E080E00E945E01CB
S1130A0041E066E080E00E945E0141E067E080E052
S1130A100E945E01CE010E94AC0481E00E94FE02AD
S1130A20DF91CF91089580E00E94B2002EEE32E073
S1130A30AC01429FC001439F900D529F900D112421
S1130A40BC0180E090E00E94BB0820E030ED4FEB59
S1130A5054E40E941A080E948C08862F60930A01AD
S1130A6070930B010E94BB070895DC0190E00DC058
S1130A70292F30E0FD01E20FF31F4081FB01E20F5B
S1130A80F31F2081421305C09F5F943088F381E0F7
S1130A90089580E00895EF92FF920F931F93CF93F0
S1130AA0DF93CDB7DEB729970FB6F894DEBF0FBE3C
S1130AB0CDBF19821A821B821C821D821E821F8254
S1130AC0188671C00E94D702182F2FE58AEE90E095
S1130AD0215080409040E1F700C000001A3070F4CB
S1130AE0612F70E080E090E00E94C003E1E0F0E05C
S1130AF0EC0FFD1FE00FF11D10830F5F123411F78F
S1130B00043089F00E949F0486E690E00E94AA03C4
S1130B102FE78AE196E0215080409040E1F700C041
S1130B20000000E033C0198610E013C0E12EF12C60
S1130B30BE01675F7F4FC7018F5E9C4F0E94140206
S1130B40E5E0F0E0EC0FFD1FEE0DFF1D89858083CD
S1130B501F5F143058F3BE016B5F7F4FCE010196C7
S1130B600E943505813069F1811110C00E949F04F3
S1130B7084E790E00E94AA032FE38DE093E02150E4
S1130B8080409040E1F700C0000000E00E94D300E4
S1130B902FEB87E299E0215080409040E1F700C0BC
S1130BA000000E94D9000E949F048FE790E00E94F9
S1130BB0AA0364E081E00E94A3040E94D702182FD4
S1130BC09DCF29960FB6F894DEBF0FBECDBFDF913F
S1130BD0CF911F910F91FF90EF900895FF920F9383
S1130BE01F93CF93DF93CDB7DEB728970FB6F89452
S1130BF0DEBF0FBECDBF19821A821B821C821D82EA
S1130C001E821F821886F12C43C0F3940E949F0415
S1130C1082E990E00E94AA0364E081E00E94A304B8
S1130C200E94D702182F00E01CC00E94D702182F80
S1130C302FE58AEE90E0215080409040E1F700C01B
S1130C4000001A3070F4612F70E080E090E00E94A0
S1130C50C003E1E0F0E0EC0FFD1FE00FF11D108395
S1130C600F5F123411F7043021F410E000E0F12C8E
S1130C7099C00E949F0486E690E00E94AA032FE791
S1130C808AE196E0215080409040E1F700C00000E6
S1130C9023E0F212BACFE9CFF3940E949F0484EACE
S1130CA090E00E94AA0364E081E00E94A3040E94F1
S1130CB0D702182F1CC00E94D702182F8FE59AEE76
S1130CC020E0815090402040E1F700C000001A303D
S1130CD070F4612F70E080E090E00E94C003E5E0D2
S1130CE0F0E0EC0FFD1FE00FF11D10830F5F1234D5
S1130CF011F7043091F00E949F0486E690E00E9470
S1130D00AA038FE79AE126E0815090402040E1F762
S1130D1000C0000010E000E045C0BE016B5F7F4FE3
S1130D20CE0101960E943505182F813049F50E94A5
S1130D309F0487EB90E00E94AA038FE39DE023E0E9
S1130D40815090402040E1F700C0000000E014C052
S1130D50802F90E0E5E0F0E0EC0FFD1FE80FF91FB5
S1130D6060818F5E9C4F0E94DD0183ED90E30197CB
S1130D70F1F700C000000F5F043050F3F12C15C0F0
S1130D80811110C00E949F0484E790E00E94AA038E
S1130D909FE32DE083E0915020408040E1F700C0C4
S1130DA0000000E093E0F91277CF22E02F1570F4F1
S1130DB00E94D3008FE392E42FE0815090402040C2
S1130DC0E1F700C000000E94D90010E0812F2896AE
S1130DD00FB6F894DEBF0FBECDBFDF91CF911F9148
S1130DE00F91FF900895CF93DF9300D000D000D0EF
S1130DF0CDB7DEB78FEF89830E9466020E94C800D8
S1130E000E9495000E94A70783E195E00E941508BF
S1130E108FB780688FBF85E0E1E6F0E0DE011296CF
S1130E2001900D928A95E1F7CE0102960E94D004BA
S1130E3084EC90E00E94AA032FE33DE083E021507C
S1130E4030408040E1F700C000000E949F04BE01D2
S1130E506F5F7F4F80E193E00E94140280916000F5
S1130E60882339F080916000853041F489818F3F77
S1130E7029F40E94EE0580936000E9CF8091600020
S1130E80813019F08981813011F781E0898361E033
S1130E9080E193E00E94DD010E944B058130B9F6A8
S1130EA00E949F0482ED90E00E94AA0360E081E02A
S1130EB00E94A3048EED90E00E94AA0382E0809336
S1130EC060000E94D7029FE52AEE30E09150204056
S1130ED03040E1F700C00000813099F50E949F0482
S1130EE08CEE90E00E94AA030E9471028FE79AE1BF
S1130EF026E0815090402040E1F700C000000E94AD
S1130F0087023FE38DE093E0315080409040E1F769
S1130F1000C000000E949F0489EF90E00E94AA0391
S1130F200E947C022FE73AE186E021503040804065
S1130F30E1F700C000000E94870281E08093600016
S1130F4086CF823009F0BDCF1092600080CF8AB185
S1130F5080688AB98AB180628AB98AB18B7F8AB97A
S1130F6086E880BD83E389B98AB180618AB98AB190
S1130F7088608AB908958CB908951F920F920FB6AC
S1130F800F9211242F933F934F935F936F937F930B
S1130F908F939F93AF93BF93EF93FF93E0910C01D3
S1130FA0F0910D010995FF91EF91BF91AF919F9140
S1130FB08F917F916F915F914F913F912F910F90FE
S1130FC00FBE0F901F9018951F920F920FB60F929D
S1130FD011242F933F934F935F936F937F938F933A
S1130FE09F93AF93BF93EF93FF93E0910E01F09122
S1130FF00F010995FF91EF91BF91AF919F918F914F
S11310007F916F915F914F913F912F910F900FBE00
S11310100F901F9018951F920F920FB60F921124E4
S11310200F900FBE0F901F90189590930F0180930F
S11310300E0108950E942E080C940F090E940809BD
S113104058F00E94010940F029F45F3F29F00C9404
S1131050F80851110C9443090C94FE080E942009CD
S113106068F39923B1F3552391F3951B550BBB27D3
S1131070AA2762177307840738F09F5F5F4F220F18
S1131080331F441FAA1FA9F335D00E2E3AF0E0E80F
S113109032D091505040E695001CCAF72BD0FE2F59
S11310A029D0660F771F881FBB1F261737074807ED
S11310B0AB07B0E809F0BB0B802DBF01FF279358A5
S11310C05F4F3AF09E3F510578F00C94F8080C9469
S11310D043095F3FE4F3983ED4F38695779567958B
S11310E0B795F7959F5FC9F7880F911D96958795DA
S11310F097F90895E1E0660F771F881FBB1F6217F9
S113110073078407BA0720F0621B730B840BBA0BB6
S1131110EE1F88F7E09508950E94280988F09F57EC
S113112098F0B92F9927B751B0F0E1F0660F771F07
S1131130881F991F1AF0BA95C9F714C0B13091F0FD
S11311400E944209B1E008950C944209672F782F58
S11311508827B85F39F0B93FCCF3869577956795C2
S1131160B395D9F73EF490958095709561957F4F2E
S11311708F4F9F4F0895E89409C097FB3EF49095D4
S11311808095709561957F4F8F4F9F4F9923A9F05C
S1131190F92F96E9BB279395F695879577956795EB
S11311A0B795F111F8CFFAF4BB0F11F460FF1BC02F
S11311B06F5F7F4F8F4F9F4F16C0882311F096E9C2
S11311C011C0772321F09EE8872F762F05C0662370
S11311D071F096E8862F70E060E02AF09A95660F29
S11311E0771F881FDAF7880F9695879597F90895E2
S11311F097F99F6780E870E060E008959FEF80ECC6
S1131200089500240A941616170618060906089568
S113121000240A9412161306140605060895092ECE
S11312200394000C11F4882352F0BB0F40F4BF2B3D
S113123011F460FF04C06F5F7F4F8F4F9F4F08957D
S113124057FD9058440F551F59F05F3F71F0479573
S1131250880F97FB991F61F09F3F79F08795089558
S1131260121613061406551FF2CF4695F1DF08C077
S1131270161617061806991FF1CF86957105610594
S113128008940895E894BB2766277727CB0197F93C
S11312900895052E97FB1EF400940E94600957FDE3
S11312A007D00E94EF0907FC03D04EF40C946009A8
S11312B050954095309521953F4F4F4F5F4F08957E
S11312C090958095709561957F4F8F4F9F4F0895AE
S11312D0EE0FFF1F0590F491E02D0994689401C06E
S11312E0E8948F929F92CF93DF930E947C09DF91C1
S11312F0CF919F908F90089588249924F401E4015C
S1131300B0E49F93AA279A158B049C04ED05FE056F
S1131310CF05D007A10798F4AD2FDC2FCF2FFE2FD8
S1131320E92D982C892E982F872F762F652F542FEF
S1131330432F322F2227B85031F7BF9127C01B2EDD
S1131340BF91BB27220F331F441F551F661F771FF2
S1131350881F991F881C991CEE1FFF1FCC1FDD1FBF
S1131360AA1FBB1F8A149B04EC05FD05CE05DF05EF
S1131370A007B10748F08A189B08EC09FD09CE09BB
S1131380DF09A00BB10B21601A94E1F62EF494014D
S1131390AF01BE01CD01000C08950F93083090F009
S11313A0982F872F762F652F542F432F322F2227E4
S11313B00850F4CF220F331F441F551F661F771F99
S11313C0881F991F0A95B2F70F9108952A0D3B1DA6
S11313D04C1D5D1D6E1D7F1D801F911F0895A1E290
S11313E01A2EAA1BBB1BFD010DC0AA1FBB1FEE1F9B
S11313F0FF1FA217B307E407F50720F0A21BB30BE6
S1131400E40BF50B661F771F881F991F1A9469F761
S113141060957095809590959B01AC01BD01CF01BD
S10914200895F894FFCFCB
S1131426050100000100656E74657220342064694C
S11314366769740057726F6E672050617373004555
S11314466E74657220796F75722050617373203AD9
S11314562000456E746572206E6577205061737343
S1131466203A200052656E746572206E65772050AE
S1131476617373203A200050617373204368616E70
S11314866765640057656C636F6D652E2E2E2E2E70
S11314962E00312D4F70656E20446F6F7200322D11
S11314A64368616E6765205061737300446F6F72A1
S11314B6206973206F70656E00446F6F72206973C4
S10B14C620636C6F73650000E4
S9030000FC
