:100000000C942A000C9489010C94B2010C94DB012D
:100010000C9447000C9447000C9411040C94470076
:100020000C9447000C94B4030C945B040C94BF0430
:100030000C9447000C9470050C9497050C94BE0525
:100040000C9447000C9447000C9447000C94470014
:100050000C94470011241FBECFE5D8E0DEBFCDBF12
:1000600010E0A0E6B0E0E4E4FFE002C005900D92ED
:10007000AE36B107D9F720E0AEE6B0E001C01D9280
:10008000A93AB207E1F70E942E030C94A0070C9442
:100090000000843008F07BC0683008F078C0813000
:1000A00019F130F08230E1F1833009F455C0089540
:1000B000442319F0413069F008952BB381E090E0BA
:1000C00002C0880F991F6A95E2F7809582238BBB47
:1000D00008952BB381E090E002C0880F991F6A95C4
:1000E000E2F7822B8BBB0895442319F0413069F06D
:1000F000089528B381E090E002C0880F991F6A95A7
:10010000E2F78095822388BB089528B381E090E0D0
:1001100002C0880F991F6A95E2F7822B88BB089569
:10012000442319F0413069F0089525B381E090E04F
:1001300002C0880F991F6A95E2F78095822385BBDC
:10014000089525B381E090E002C0880F991F6A9559
:10015000E2F7822B85BB0895442319F0413069F002
:10016000089522B381E090E002C0880F991F6A953C
:10017000E2F78095822382BB089522B381E090E06C
:1001800002C0880F991F6A95E2F7822B82BB0895FF
:10019000843008F07BC0683008F078C0813019F1F5
:1001A00030F08230E1F1833009F455C008954423E2
:1001B00019F0413069F008952AB381E090E002C05F
:1001C000880F991F6A95E2F7809582238ABB08956C
:1001D0002AB381E090E002C0880F991F6A95E2F788
:1001E000822B8ABB0895442319F0413069F00895A9
:1001F00027B381E090E002C0880F991F6A95E2F76B
:100200008095822387BB089527B381E090E002C0E8
:10021000880F991F6A95E2F7822B87BB08954423C4
:1002200019F0413069F0089524B381E090E002C0F4
:10023000880F991F6A95E2F78095822384BB089501
:1002400024B381E090E002C0880F991F6A95E2F71D
:10025000822B84BB0895442319F0413069F008953E
:1002600021B381E090E002C0880F991F6A95E2F700
:100270008095822381BB089521B381E090E002C084
:10028000880F991F6A95E2F7822B81BB089584300D
:1002900078F5813081F028F08230B9F08330F9F0C0
:1002A0000895662319F0613019F008951ABA089577
:1002B0008FEF8ABB0895662319F0613019F0089515
:1002C00017BA08958FEF87BB0895662319F0613040
:1002D00019F0089514BA08958FEF84BB089566232A
:1002E00019F0613019F0089511BA08958FEF81BBAC
:1002F0000895813041F028F0823039F0833039F0B0
:1003000008956BBB089568BB089565BB089562BBF3
:1003100008951F920F920FB60F9211242F933F93BF
:100320004F935F936F937F938F939F93AF93BF93FD
:10033000EF93FF93E0917200F0917300309709F012
:100340000995FF91EF91BF91AF919F918F917F910F
:100350006F915F914F913F912F910F900FBE0F9032
:100360001F9018951F920F920FB60F9211242F9382
:100370003F934F935F936F937F938F939F93AF932D
:10038000BF93EF93FF93E0917000F091710030976D
:1003900009F00995FF91EF91BF91AF919F918F91D6
:1003A0007F916F915F914F913F912F910F900FBE71
:1003B0000F901F9018951F920F920FB60F92112455
:1003C0002F933F934F935F936F937F938F939F935D
:1003D000AF93BF93EF93FF93E0916E00F0916F00A6
:1003E000309709F00995FF91EF91BF91AF919F91DF
:1003F0008F917F916F915F914F913F912F910F90CE
:100400000FBE0F901F901895813049F018F0823080
:1004100059F008957093730060937200089570937B
:10042000710060937000089570936F0060936E0088
:1004300008958130A9F120F0823009F461C0089557
:10044000613081F028F06230B9F06330F9F008953E
:1004500085B78E7F85BF85B78D7F85BF8BB780645D
:100460008BBF089585B7816085BF85B78D7F85BFB8
:100470008BB780648BBF089585B78E7F85BF85B7A6
:10048000826085BF8BB780648BBF089585B781601C
:1004900085BF85B7826085BF8BB780648BBF0895A9
:1004A000613081F028F06230B9F06330F9F00895DE
:1004B00085B78B7F85BF85B7877F85BF8BB7806802
:1004C0008BBF089585B7846085BF85B7877F85BF5B
:1004D0008BB780688BBF089585B78B7F85BF85B745
:1004E000886085BF8BB780688BBF089585B78460AF
:1004F00085BF85B7886085BF8BB780688BBF08953F
:10050000623019F0633041F0089584B78F7B84BF67
:100510008BB780628BBF089584B7806484BF8BB72C
:1005200080628BBF089541E062E081E00E94C800D4
:1005300041E063E081E00E94C800089540E062E08D
:1005400081E00E94490041E063E081E00E944900AF
:10055000089540E062E081E00E94490040E063E0ED
:1005600081E00E944900089541E060E081E00E943E
:10057000C80041E061E081E00E94C800089540E0C9
:1005800060E081E00E94490041E061E081E00E947A
:100590004900089540E060E081E00E94490040E0A9
:1005A00061E081E00E944900089541E064E081E05B
:1005B0000E94C80041E065E081E00E94C80041E07F
:1005C00066E081E00E94C80041E067E081E00E94AF
:1005D000C8000895E0917400F0E0E05AFF4F808178
:1005E00020E1829FC001112498B39F70892B88BBA2
:1005F000809174008F5F80937400809174008430C8
:1006000011F410927400089540E064E081E00E94CB
:10061000490040E065E081E00E94490040E066E07A
:1006200081E00E94490040E067E081E00E944900CB
:1006300008950E946E058093A8008091A8000E94F2
:100640003A040E94CD0508950E949E020E94EA028B
:1006500008950E94A9020E94040308950E94B40212
:100660000E9493020E94D5020E94D1050E945A0561
:1006700062E080E00E94190262E081E00E941902BB
:1006800064E273E080E00E94040269E273E081E0CA
:100690000E94040289E193E00E94C8058FB7806838
:1006A0008FBF61E080E00E94470161E082E00E942C
:1006B000470140E064E083E00E94C8008091A80008
:1006C000833218F00E94BF0202C00E94CA028FB794
:1006D0008F778FBF0E941D066F30710581059105D0
:1006E00020F40E94A9020E94040360ED77E080E0FC
:1006F00090E00E9427058FB780688FBF60ED77E09C
:1007000080E090E00E942705D9CF8EB5887F8EBD0E
:100710008AE008958EB5887F8EBD8EB581608EBDCE
:1007200008959DBD8CBD0895813029F48EB58064F7
:100730008EBD81E00895811105C08EB58F7B8EBD81
:1007400081E0089580E0089586B597B5089588B74B
:1007500085FB882780F9089588B7806288BF08954F
:100760008EB580688EBD08951F920F920FB60F92BE
:1007700011242F933F934F935F936F937F938F93A6
:100780009F93AF93BF93EF93FF93809175009091E8
:100790007600A0917700B09178000196A11DB11D5F
:1007A0008093750090937600A0937700B0937800C3
:1007B00080937F0090938000A0938100B09382008B
:1007C00040917B0050917C0060917D0070917E0093
:1007D00084179507A607B70799F48091790090913F
:1007E0007A009DBD8CBDE0918300F0918400099555
:1007F0001092750010927600109277001092780097
:10080000FF91EF91BF91AF919F918F917F916F91E8
:100810005F914F913F912F910F900FBE0F901F90BE
:1008200018951F920F920FB60F9211242F933F939A
:100830004F935F936F937F938F939F93AF93BF93E8
:10084000EF93FF93E0918500F0918600309709F0D7
:100850000995FF91EF91BF91AF919F918F917F91FA
:100860006F915F914F913F912F910F900FBE0F901D
:100870001F901895CF93EDEC8E9FE12D1124E695F6
:10088000E695E6952E2F220F922F990F990F920F32
:10089000C82FC91BF0E0EC59FF4F608182E00E9435
:1008A0007901EC2FF0E0EC59FF4F608180E00E946D
:1008B0007901CF9108951F920F920FB60F921124D4
:1008C0002F933F934F935F936F937F938F939F9358
:1008D000AF93BF93EF93FF93809193009091940017
:1008E000A0919500B09196000196A11DB11D809335
:1008F000930090939400A0939500B09396008091FC
:100900008B0090918C00A0918D00B0918E0001968B
:10091000A11DB11D80938B0090938C00A0938D003E
:10092000B0938E00E0919100F09192003097B1F079
:10093000409198005091990060919A0070919B00AD
:1009400084179507A607B70749F4099510928B00FD
:1009500010928C0010928D0010928E00FF91EF91FA
:10096000BF91AF919F918F917F916F915F914F91C7
:100970003F912F910F900FBE0F901F9018951F92CF
:100980000F920FB60F9211242F933F934F935F93C3
:100990006F937F938F939F93AF93BF93EF93FF9347
:1009A0008091930090919400A0919500B091960051
:1009B0000196A11DB11D8093930090939400A09384
:1009C0009500B09396008091870090918800A09147
:1009D0008900B0918A000196A11DB11D8093870006
:1009E00090938800A0938900B0938A00E0918F00D3
:1009F000F09190003097D1F040919C0050919D0073
:100A000060919E0070919F0084179507A607B70715
:100A100069F409951092870010928800109289005D
:100A200010928A0080919700819582BFFF91EF918B
:100A3000BF91AF919F918F917F916F915F914F91F6
:100A40003F912F910F900FBE0F901F9018950F930D
:100A50001F939B01AC01A8EEB3E00E9495070E9492
:100A6000690620E030E040E05EE30E94CF060E948D
:100A70003A06072F182F292F332700939C00109335
:100A80009D0020939E0030939F0060939700662303
:100A900071F00F5F1F4F2F4F3F4F00939C0010933B
:100AA0009D0020939E0030939F00619562BF1F912F
:100AB0000F9108958AB180688AB98AB180628AB933
:100AC0008AB18B7F8AB986E880BD83E389B98AB110
:100AD00080618AB98AB188608AB908958CB1089515
:100AE0001F920F920FB60F9211242F933F934F93A3
:100AF0005F936F937F938F939F93AF93BF93EF9386
:100B0000FF93E091A000F091A1000995FF91EF9172
:100B1000BF91AF919F918F917F916F915F914F9115
:100B20003F912F910F900FBE0F901F9018951F921D
:100B30000F920FB60F9211242F933F934F935F9311
:100B40006F937F938F939F93AF93BF93EF93FF9395
:100B5000E091A200F091A3000995FF91EF91BF9160
:100B6000AF919F918F917F916F915F914F913F9145
:100B70002F910F900FBE0F901F9018951F920F92FC
:100B80000FB60F9211240F900FBE0F901F90189563
:100B90009093A1008093A00008958AB18F7D8AB9B7
:100BA000089541E067E083E00E94C80040E066E00D
:100BB00083E00E94C8000E94AC03089541E067E012
:100BC00083E00E94490083ED90E30197F1F700C0B4
:100BD000000040E067E083E00E944900089581E062
:100BE0000E9494030E94B0030E948A030E94A703FC
:100BF0008823E1F30E94A4039093A7008093A600AA
:100C00000E94AC03089580E00E9494030E94B00308
:100C10000E948A030E94A7038823E1F30E94A40391
:100C20009093A5008093A4000E94AC0380E090E024
:100C30000E9491030E94850308950E94DE050E9490
:100C4000EF050E9403062091A4003091A500809139
:100C5000A6009091A700281B390BA8E2B7E80E94D4
:100C6000860720E834E84EE150E00E946407CA019C
:100C7000B90108950E94AE0688F09F5798F0B92FE9
:100C80009927B751B0F0E1F0660F771F881F991FC1
:100C90001AF0BA95C9F714C0B13091F00E94C80695
:100CA000B1E008950C94C806672F782F8827B85FA5
:100CB00039F0B93FCCF3869577956795B395D9F719
:100CC0003EF490958095709561957F4F8F4F9F4F23
:100CD0000895E89409C097FB3EF49095809570952F
:100CE00061957F4F8F4F9F4F9923A9F0F92F96E978
:100CF000BB279395F695879577956795B795F111ED
:100D0000F8CFFAF4BB0F11F460FF1BC06F5F7F4F89
:100D10008F4F9F4F16C0882311F096E911C077239B
:100D200021F09EE8872F762F05C0662371F096E8A4
:100D3000862F70E060E02AF09A95660F771F881F73
:100D4000DAF7880F9695879597F9089557FD90588B
:100D5000440F551F59F05F3F71F04795880F97FB7F
:100D6000991F61F09F3F79F0879508951216130639
:100D70001406551FF2CF4695F1DF08C01616170668
:100D80001806991FF1CF869571056105089408959D
:100D9000E894BB2766277727CB0197F908950E942F
:100DA000E2060C9453070E94450738F00E944C0756
:100DB00020F0952311F00C943C070C944207112469
:100DC0000C94C9060E94A60670F3959FC1F3950F77
:100DD00050E0551F629FF001729FBB27F00DB11DBF
:100DE000639FAA27F00DB11DAA1F649F6627B00D4F
:100DF000A11D661F829F2227B00DA11D621F739F38
:100E0000B00DA11D621F839FA00D611D221F749F45
:100E10003327A00D611D231F849F600D211D822F8C
:100E2000762F6A2F11249F5750409AF0F1F08823B3
:100E30004AF0EE0FFF1FBB1F661F771F881F9150E0
:100E40005040A9F79E3F510580F00C943C070C944C
:100E5000C9065F3FE4F3983ED4F38695779567958E
:100E6000B795F795E7959F5FC1F7FE2B880F911D0A
:100E70009695879597F9089597F99F6780E870E0B0
:100E800060E008959FEF80EC089500240A94161600
:100E9000170618060906089500240A941216130668
:100EA000140605060895092E0394000C11F48823F6
:100EB00052F0BB0F40F4BF2B11F460FF04C06F5F12
:100EC0007F4F8F4F9F4F0895A1E21A2EAA1BBB1B85
:100ED000FD010DC0AA1FBB1FEE1FFF1FA217B30706
:100EE000E407F50720F0A21BB30BE40BF50B661F1C
:100EF000771F881F991F1A9469F7609570958095E0
:100F000090959B01AC01BD01CF010895A29FB00156
:100F1000B39FC001A39F700D811D1124911DB29F2D
:100F2000700D811D1124911D08950E948607A59FB3
:100F3000900DB49F900DA49F800D911D11240895D4
:040F4000F894FFCF53
:0E0F44000C0603093F065B4F666D7D077F6F4D
:00000001FF
